:100000000C945D080C94F6350C94CB350C94A0350B
:100010000C9475350C944A350C941F350C94F434BB
:100020000C94C9340C948E080C948E080C948E0891
:100030000C948E080C9470370C948E080C948E08D7
:100040000C948E080C948E080C948E080C948E08D8
:100050000C9445370C948E080C948E080C947F34C5
:100060000C948E080C9455340C942B340C948E08FC
:100070000C948E080C948E080C948E080C948E08A8
:100080000C948E080C948E080C948E080C948E0898
:100090000C948E080C948E080C948E080C942136C7
:1000A0000C948E080C948E080C948E080C948E0878
:1000B0000C948E080C948E080C948E080C948E0868
:1000C0000C948E080C948E080C948E080C940134B9
:1000D0000C94D7330C948E080C94AD330C9483336A
:1000E0000C948E080C94900D0C948B470C94B429AE
:1000F0000C94BC290C94230B0C947C270C940B0BB4
:100100000C94EC460C94C8080C9432090C94F90A2F
:100110000C94DE0A0C94BA0D0C94110B0C948E0DF9
:100120000C94DE470C94F00A0C941F0B0C94A74619
:100130000C946D490C94CA450C94E80A0C949E29C1
:100140000C949E270C94E2250C94E5470C945028BF
:100150000C9493290C94D5250C94D7270C94BB258B
:100160000C9420280C94B0090C94030B0C94E70D0C
:100170000C94AE250C941E0B0C94070B0C94AC291C
:100180000C94F30A0C94090C0C94C0270C94FF27D0
:100190000C94BE090C94C8250C9484250C945146EB
:1001A0000C94EC0A0C940A0A0C948F0D0C941647CC
:1001B0000C94A1290C949C250C94B30D0C941E0E48
:1001C0000C9490290C9441090C94A9290C94150BBA
:1001D0000C941F290C94A00D0C94D0460C94D3477A
:1001E0000C94910D0C94EC080C947F280C944C45C5
:1001F0000C9450450C9469440C944A450C94524517
:100200000C94E7460C94F0370C94E40A0C943D46A9
:100210000C9496290C941B0E0C944E450C94190BBF
:100220000C9417290C942C460C94590A0C943312F4
:100230000C94FD0A00002100240027002A002D0054
:100240003000330001010000040107010A01000031
:100250002200250028002B002E003100340002016E
:100260000000050108010B0100002000230026000A
:1002700029002C002F0032000001000003010601BC
:10028000090105050505070508080808020202021C
:100290000A0A080804040404010101010101010122
:1002A0000303030303030303040707070C0C0C0CED
:1002B0000C0C0C0C020202020606060606060606D6
:1002C0000B0B0B0B0B0B0B0B010210202008081063
:1002D00020401020408002010201080402010102B6
:1002E000040810204080804020100804020180048F
:1002F00002018040201008040201080402010102EA
:1003000004081020408001020408102040800000F2
:100310000A0B02090C0D0E0807030401000000007F
:1003200000000000000000000000000000000000CD
:10033000000000000000000000001211100000008A
:1003400000000000000000000000000000000000AD
:10035000000000000000000000000000000000009D
:10036000000000000000000000001FCC000C000096
:1003700000000000000008003000600008003000AD
:1003800060000000022003FC1E20022003FC1E204F
:100390000220000000000E1811043FFF10840C78AA
:1003A000000000000F0010840F3800C00778188488
:1003B0000078000000780F8410C411240E9800E427
:1003C00000840008080068007000000000000000C1
:1003D0000000000000000000000007E018182004E2
:1003E00040020000000040022004181807E000004E
:1003F000000000000240024001800FF00180024036
:10040000024000000080008000800FF80080008023
:10041000008000000001000D000E00000000000040
:10042000000000000000008000800080008000804C
:10043000008000800000000C000C000000000000A4
:1004400000000000000000060018006001800600A7
:1004500018002000000007F0080810041004080825
:1004600007F000000000080408041FFC000400045A
:100470000000000000000E0C101410241044118421
:100480000E0C000000000C18100411041104128856
:100490000C700000000000E00320042408241FFC6E
:1004A0000024000000001F9810841104110410881B
:1004B00010700000000007F008881104110418886B
:1004C0000070000000001C00100010FC13001C0055
:1004D0001000000000000E381144108410841144F4
:1004E0000E38000000000700088C104410440888F3
:1004F00007F00000000000000000030C030C0000E7
:1005000000000000000000000001010600000000E3
:1005100000000000000000800140022004100808D4
:1005200010040000022002200220022002200220EB
:1005300002200000000010040808041002200140FE
:100540000080000000000E001200100C106C1080E3
:100550000F00000003E00C1813E4142417C408284B
:1005600007D000000004003C03C41C40074000E426
:10057000001C000410041FFC1104110411040E8857
:100580000070000003E00C181004100410041008A0
:100590001C10000010041FFC1004100410040808B4
:1005A00007F0000010041FFC1104110417C410040C
:1005B0000818000010041FFC1104110017C01000DF
:1005C0000800000003E00C181004100410441C780C
:1005D0000040000010041FFC108400800080108484
:1005E0001FFC10040000100410041FFC1004100471
:1005F0000000000000030001100110011FFE1000A8
:100600001000000010041FFC110403801464181C67
:100610001004000010041FFC100400040004000477
:10062000000C000010041FFC1F0000FC1F001FFC3A
:100630001004000010041FFC0C04030000E010185C
:100640001FFC100007F0080810041004100408082C
:1006500007F0000010041FFC108410801080108030
:100660000F00000007F0081810241024101C080ABE
:1006700007F2000010041FFC1104110011C011301A
:100680000E0C000400000E1C110410841084104491
:100690001C3800001800100010041FFC100410008B
:1006A0001800000010001FF81004000400041004DB
:1006B0001FF8100010001E0011E0001C00701380D5
:1006C0001C0010001FC0103C00E01F0000E0103CA8
:1006D0001FC000001004180C163401C001C01634ED
:1006E000180C100410001C00130400FC13041C0060
:1006F000100000000804101C1064108413041C0473
:10070000101800000000000000007FFE40024002C0
:1007100040020000000030000C0003800060001C5C
:100720000003000000004002400240027FFE000083
:1007300000000000000000002000400040004000D9
:100740002000000000010001000100010001000183
:1007500000010001000040004000200000000000F7
:1007600000000000000000980124014401440144FD
:1007700000FC000410001FFC008801040104008834
:1007800000700000000000700088010401040104F2
:1007900000880000000000700088010401041108B6
:1007A0001FFC0004000000F801440144014401441E
:1007B00000C800000000010401040FFC1104110432
:1007C00011001800000000D601290129012901C9E2
:1007D0000106000010041FFC008401000100010458
:1007E00000FC000400000104190419FC00040004CA
:1007F000000000000000000300010101190119FEC2
:100800000000000010041FFC0024004001B4010C93
:10081000010400000000100410041FFC0004000488
:1008200000000000010401FC0104010001FC0104BE
:10083000010000FC010401FC00840100010001042E
:1008400000FC0004000000F801040104010401049C
:1008500000F80000010101FF008501040104008887
:100860000070000000000070008801040104010510
:1008700001FF00010104010401FC008401040100E6
:1008800001800000000000CC012401240124012487
:100890000198000000000100010007F801040104B4
:1008A00000000000010001F8000400040004010839
:1008B00001FC0004010001800170000C00100160C7
:1008C0000180010001F0010C003001C00030010C7A
:1008D00001F0010000000104018C00740170018C22
:1008E00001040000010101810171000E0018016086
:1008F0000180010000000184010C013401440184E5
:10090000010C0000000000000000000001003EFC9F
:10091000400240020000000000000000FFFF000055
:10092000000000000000400240023EFC0100000008
:1009300000000000000060008000800040004000D7
:100940002000200000000000000000000000000067
:10095000000000003F4000000000000000003000E8
:10096000400030004000000009000BC03D000BC0FB
:100970003D00090018C024407FE022403180000083
:10098000180024C01B000D803240018003801C40F1
:1009900027401C800740004010006000000000005D
:1009A000000000000000000000001F8020404020E8
:1009B0000000402020401F800000000009000600C9
:1009C0001F80060009000000040004003F800400AE
:1009D00004000000001000600000000000000000A3
:1009E00004000400040004000400000000000040B3
:1009F0000000000000000000002001C006003800D8
:100A0000400000001F802040204020401F80000048
:100A1000000010403FC000400000000018C021400E
:100A200022402440184000001080204024402440F0
:100A30001B80000002000D0011003FC001400000BB
:100A40003C80244024402440238000001F80244018
:100A500024403440038000003000200027C03800CC
:100A6000200000001B802440244024401B80000004
:100A70001C0022C0224022401F8000000000000015
:100A800008400000000000000000000004600000BA
:100A900000000000000004000A0011002080404017
:100AA0000900090009000900090000000000404099
:100AB000208011000A0004001800200023402400B8
:100AC000180000001F802040274029401F400000E0
:100AD000004007C039000F0001C0004020403FC067
:100AE000244024401B8000001F80204020402040E4
:100AF0003080000020403FC0204020401F80000088
:100B000020403FC024402E4030C0000020403FC065
:100B100024402E00300000000F00108020402240B2
:100B20003380020020403FC0040004003FC020404A
:100B3000204020403FC02040204000000060202096
:100B400020203FC02000200020403FC024400B0058
:100B500030C0204020403FC020400040004000C046
:100B60003FC03C0003C03C003FC0000020403FC0ED
:100B70000C4023003FC020001F8020402040204028
:100B80001F80000020403FC02440240018000000C7
:100B90001F802140214020E01FA0000020403FC0D6
:100BA0002440260019C0004018C0244024402240A0
:100BB00031800000300020403FC020403000000065
:100BC00020003F80004000403F80200020003E0089
:100BD00001C0070038002000380007C03C0007C0F3
:100BE00038000000204039C0060039C02040000015
:100BF0002000384007C0384020000000304021C0AD
:100C00002640384020C00000000000007FE0402067
:100C100040200000000070000C0003800040000035
:100C20000000402040207FE0000000000000200085
:100C30004000200000000000001000100010001014
:100C40000010001000000000400000000000000044
:100C5000000002800540054003C0004020003FC066
:100C6000044004400380000000000380044004406E
:100C70000640000000000380044024403FC00040C4
:100C800000000380054005400340000000000440D0
:100C90001FC0244024402000000002E00550055001
:100CA0000650042020403FC00440040003C0004020
:100CB0000000044027C000400000000000100010A9
:100CC000041027E00000000020403FC00140070062
:100CD00004C00440204020403FC0004000400000CD
:100CE00007C0040007C0040003C00000044007C0A0
:100CF0000440040003C0004000000380044004409E
:100D000003800000041007F004500440038000003A
:100D1000000003800440045007F00010044007C0A6
:100D200002400400040000000000064005400540A9
:100D300004C00000000004001F80044000400000C8
:100D4000040007800040044007C000400400070082
:100D500004C0018006000400060001C0070001C0B5
:100D600006000000044006C0010006C00440000068
:100D70000410071004E00180060004000000044095
:100D800005C00640044000000000000004007BE0B5
:100D900040200000000000000000FFF00000000004
:100DA000000040207BE004000000000040008000C4
:100DB0004000200020004000000000000000000073
:100DC00000005F00000000000000070007000000B6
:100DD00000147F147F14000000242A7F2A120000D0
:100DE00000231308646200000006090906000000E1
:100DF0000000050300000000001C2241000000006C
:100E00000041221C0000000000082A1C2A080000E3
:100E10000008083E0808000000A060000000000074
:100E200000080808080800000060600000000000DA
:100E30000020100804020000003E5149453E000019
:100E40000000427F40000000006251494946000016
:100E50000022414949360000001814127F1000009A
:100E60000027454545390000003C4A49493000000B
:100E700000017109050300000036494949360000A8
:100E800000064949291E0000000036360000000017
:100E90000000AC6C000000000008142241000000BB
:100EA000001414141414000000412214080000005F
:100EB000000201510906000000324979413E00005C
:100EC000007E0909097E0000007F4949493600007B
:100ED000003E414141220000007F4141221C0000B0
:100EE000007F494949410000007F090909010000CC
:100EF000003E414151720000007F0808087F000059
:100F00000000417F41000000002040413F010000FF
:100F1000007F081422410000007F40404040000054
:100F2000007F020C027F0000007F0408107F000099
:100F3000003E4141413E0000007F090909060000D2
:100F4000003E4151215E0000007F09192946000042
:100F500000264949493200000001017F01010000DB
:100F6000003F4040403F0000001F2040201F000085
:100F7000003F4038403F0000006314081463000045
:100F80000003047804030000006151494543000058
:100F9000007F414100000000000204081020000012
:100FA0000041417F00000000000402010204000033
:100FB00000808080808000000001020400000000AA
:100FC0000020545454780000007F48444438000006
:100FD000003844442800000000384444487F0000A2
:100FE000003854545418000000087E090200000024
:100FF0000018A4A4A47C0000007F0804047800006A
:1010000000007D00000000000080847D00000000E2
:10101000007F10284400000000417F4000000000D5
:10102000007C041804780000007C08047C000000A8
:10103000003844443800000000FC2424180000005C
:1010400000182424FC00000000007C0804000000BC
:10105000004854542400000000047F4400000000B5
:10106000003C40407C000000001C2040201C000090
:10107000003C4030403C0000004428102844000060
:10108000001CA0A07C000000004464544C440000FC
:10109000000836410000000000007F000000000052
:1010A00000413608000000000002010102010000BA
:1010B0000002050502000000F03711241FBECFEF2B
:1010C000D1E2DEBFCDBF00E00CBF19E0A0E0B2E08E
:1010D000ECE0F0EA00E00BBF02C007900D92A837E9
:1010E000B107D9F720E1A8E7B9E001C01D92AC37FC
:1010F000B207E1F718E0CDE5D8E000E006C021979F
:101100000109802FFE010E94D14CCC35D10780E02F
:101110000807A9F70E9408390C9404500C940000A9
:10112000CF93DF93EC01E885F9851995688379837E
:101130008A839B831C821D821E821F8281E08A8794
:10114000DF91CF9108953FB7F8948091B90A9091BB
:10115000BA0AA091BB0AB091BC0A26B5A89B05C0EB
:101160002F3F19F00196A11DB11D3FBFBA2FA92F26
:10117000982F8827BC01CD01620F711D811D911D23
:1011800042E0660F771F881F991F4A95D1F708958F
:101190002FB7F8946091B50A7091B60A8091B70A9A
:1011A0009091B80A2FBF08950E94C80828EE33E036
:1011B00040E050E00E94684CCA01B90108958CBD1E
:1011C0009DBD089591E09093B80D8093DA0D109233
:1011D000B90D1092DB0D0895AF92BF92CF92DF92BE
:1011E000EF92FF920F931F93CF93DF936C017B01DC
:1011F0008B01040F151FEB015E01AE18BF08C0176D
:10120000D10759F06991D601ED91FC910190F081DF
:10121000E02DC6011995892B79F7C501DF91CF9192
:101220001F910F91FF90EF90DF90CF90BF90AF9004
:101230000895FC01A089B1898C91A689B78982FDA6
:101240000FC09C91818D8F5F8F73228D821749F023
:10125000A18DAE0FBF2FB11D5D969C93818F089518
:101260008C910895FC01538D448D252F30E0842FFF
:1012700090E0821B930B541710F0CF9608950197BE
:101280000895FC01918D828D981761F0A28DAE0FAB
:10129000BF2FB11D5D968C91928D9F5F9F73928F32
:1012A00090E008958FEF9FEF08958F929F92AF92F5
:1012B000BF92CF92DF92EF92FF920F931F93CF9343
:1012C000DF936B019CEDE92E9DE0F92ED0E0C0E0AC
:1012D000082F880F110B0E94C80860930D0E7093A1
:1012E0000E0E80930F0E9093100E85E09EE00E94EC
:1012F000410997FF29C00E94C80880900D0E909068
:101300000E0EA0900F0EB090100E681979098A0980
:101310009B098090090E90900A0EA0900B0EB09041
:101320000C0E681579058A059B05F8F2CE01DF9150
:10133000CF911F910F91FF90EF90DF90CF90BF90D2
:10134000AF909F908F9008950817190779F3F701D0
:1013500081937F012196CC16DD0609F0BCCFE6CF44
:10136000FC01918D828D981731F0828DE80FF11D6F
:10137000858D90E008958FEF9FEF0895FC01918D8A
:10138000228D892F90E0805C9F4F821B91098F7383
:101390009927089585E09EE00E94BE0921E0892BEF
:1013A00009F420E0822F089582EA9EE00E94BE099F
:1013B00021E0892B09F420E0822F08958FE39FE03C
:1013C0000E94BE0921E0892B09F420E0822F0895B4
:1013D000FC01A48DA80FB92FB11DA35ABF4F2C91AA
:1013E000848D90E001968F739927848FA689B789A1
:1013F0002C93A089B1898C91837080648C93938D98
:10140000848D981306C00288F389E02D80818F7D3A
:1014100080830895EF92FF920F931F93CF93DF93F2
:10142000EC0181E0888F9B8D8C8D98131AC0E88920
:10143000F989808185FF15C09FB7F894EE89FF89EF
:101440006083E889F98980818370806480839FBF8D
:1014500081E090E0DF91CF911F910F91FF90EF908D
:101460000895F62E0B8D10E00F5F1F4F0F7311279D
:10147000E02E8C8D8E110CC00FB607FCFACFE889D8
:10148000F989808185FFF5CFCE010E94E809F1CF6F
:10149000EB8DEC0FFD2FF11DE35AFF4FF0829FB74C
:1014A000F8940B8FEA89FB8980818062CFCF0C94FE
:1014B0000A0ACF93DF93EC01888D8823B9F0AA89BB
:1014C000BB89E889F9898C9185FD03C0808186FDFF
:1014D0000DC00FB607FCF7CF8C9185FFF2CF80814E
:1014E00085FFEDCFCE010E94E809E9CFDF91CF91D2
:1014F0000895CF93DF93EC010E94590AEA89FB8992
:1015000080818F7E8083EA89FB898081877F8083C9
:10151000EA89FB8980818F778083EA89FB898081D2
:101520008F7D80838A8D898FDF91CF91089580E0B0
:1015300090E0892B29F00E94DE0981110E940000B1
:1015400080E090E0892B49F080E090E0892B29F041
:101550000E94000081110E94000080E090E0892B31
:1015600029F00E94D40981110E94000080E090E0DF
:10157000892B29F00E94CA0981110C94000008955A
:101580008150823108F05AC0E82FF0E08827E453F8
:10159000F54F8F4F0C94D14CEC0AF00ADE0AE40AA6
:1015A000E80A1E0BF30AF90AFD0A030B070B0B0BE3
:1015B000110B150B1E0B190B1F0B230B80918000B9
:1015C0008F77809380000895809180008F7DF9CF80
:1015D00080918000877FF5CF84B58F7784BD089593
:1015E00084B58F7DFBCF8091B0008F778093B00062
:1015F00008958091B0008F7DF9CF809190008F7712
:10160000809390000895809190008F7DF9CF809114
:101610009000877FF5CF8091A0008F778093A00006
:1016200008958091A0008F7DF9CF8091A000877FE1
:10163000F5CF809120018F778093200108958091CC
:1016400020018F7DF9CF80912001877FF5CFCF9347
:10165000DF93282F30E0F901E25FFC4F8491F9011C
:10166000E853FD4FD491F901EE57FD4FC491CC23BF
:10167000A1F081110E94C00AEC2FF0E0EE0FFF1FD5
:10168000E859FD4FA591B491EC91ED2381E090E0F4
:1016900009F480E0DF91CF91089580E090E0FACFE7
:1016A0001F93CF93DF93282F30E0F901E25FFC4FC7
:1016B0008491F901E853FD4FD491F901EE57FD4FA4
:1016C000C491CC23A9F0162F81110E94C00AEC2FDF
:1016D000F0E0EE0FFF1FE25BFD4FA591B4918FB7D5
:1016E000F894EC91111108C0D095DE23DC938FBFE4
:1016F000DF91CF911F910895DE2BF8CFCF93DF9329
:1017000090E0FC01E853FD4F24918E579D4FFC0162
:1017100084918823C9F090E0880F991FFC01EC5C4C
:10172000FD4FA591B491FC01E25BFD4FC591D491B1
:1017300061110DC09FB7F8948C91209582238C93F2
:101740008881282328839FBFDF91CF91089562303D
:1017500051F49FB7F8943C91822F809583238C930A
:10176000E8812E2BEFCF8FB7F894EC912E2B2C9392
:101770008FBFEACF90917B00986090937B0020917F
:10178000120290E4299F900111248770822B80938C
:101790007C0080917A00806480937A0080917A0046
:1017A00086FDFCCF809178009091790008958F920A
:1017B0009F92AF92BF92CF92DF92EF92FF924B0136
:1017C0005C010E94A3086B017C010E94A3086C19B4
:1017D0007D098E099F09683E734081059105A8F334
:1017E00021E0821A9108A108B10888EEC80E83E0B2
:1017F000D81EE11CF11C81149104A104B10429F745
:10180000FF90EF90DF90CF90BF90AF909F908F9020
:1018100008950895CF92DF92EF92FF920F931F9356
:10182000CF93DF93EC01CC80DD80EE80FF802A85B2
:1018300060E070E0CB01222359F0E885F985199525
:10184000088119812A813B81601B710B820B930BEC
:101850006C0D7D1D8E1D9F1DDF91CF911F910F91EE
:10186000FF90EF90DF90CF90089520918F0A260F80
:101870003327331F21323105ECF42091B20DFC01E6
:1018800090E080E0243069F082E00895A0918F0A12
:101890002191AC014359554FA40FB52FB11D2C9385
:1018A0000196861798F380918F0A680F60938F0ACC
:1018B00080E0089581E008951092B20D81E0809358
:1018C000B10D10928C0D61E084E10E94500B61E03B
:1018D00085E10E94500BE9EBF0E080818E7F8083F0
:1018E00080818D7F808388E48093B80085E4809335
:1018F000BC000895CF93DF9391E090936C0A882306
:10190000B9F0C091B800D091BA008091BC008A7B38
:101910008093BC0060E084E10E94500B60E085E1B0
:101920000E94500B0E945C0CD093BA00C093B80088
:10193000DF91CF9108958F929F92AF92BF92CF92F5
:10194000DF92EF92FF920F931F93CF93DF93D0918B
:10195000DB0DD13208F0D7C0182FC091DA0D0E94EC
:10196000A3086B017C018091B20D81116BC082E0F4
:101970008093B20D1093B10D8FEF8093B00D109244
:10198000AF0DD093AE0DAAEBBDE0EEE8FDE080E038
:10199000D81391C010928D0D80918D0DCC0FC82B56
:1019A000C0938D0D80918C0D813009F088C010920C
:1019B0008C0D0E94A3086B017C0180918D0D80939A
:1019C000BB008091B40D9091B50DA091B60DB09172
:1019D000B70D892B8A2B8B2BA1F00E94A3080091B5
:1019E000B40D1091B50D2091B60D3091B70D6C1955
:1019F0007D098E099F09061717072807390708F47C
:101A000042C08091BC0083FDD8CF85EC8093BC00A0
:101A10000E94A3086B017C018091B20D823009F411
:101A200050C08091B00D8F3F09F46FC08091B00D10
:101A3000803209F46CC08091B00D803309F469C024
:101A400084E026C08091B40D9091B50DA091B60DA3
:101A5000B091B70D892B8A2B8B2B09F484CF0E9470
:101A6000A3088090B40D9090B50DA090B60DB090E5
:101A7000B70D6C197D098E099F0986169706A80671
:101A8000B90608F070CF8091B30D0E947A0C85E002
:101A90001092B90D1092DB0D1092B80DDF91CF911D
:101AA0001F910F91FF90EF90DF90CF90BF90AF907C
:101AB0009F908F9008959D9191938F5F69CF85EE50
:101AC000A5CF8091B40D9091B50DA091B60DB091B8
:101AD000B70D892B8A2B8B2B09F49ECF0E94A3086C
:101AE0000091B40D1091B50D2091B60D3091B70D48
:101AF0006C197D098E099F090617170728073907F2
:101B000008F08ACFC0CF81E0C3CF80E0C1CF82E0B0
:101B1000BFCF83E0BDCF81E00C949B0C0895089566
:101B20000895E0916B0D80916A0DE81730F4F0E0B4
:101B3000E459F24F808190E008958FEF9FEF089570
:101B400090916B0D80916A0D2FEF3FEF981748F43D
:101B5000E92FF0E0E459F24F208130E09F5F90934D
:101B60006B0DC901089580916A0D90916B0D891BD1
:101B7000990B0895CF92DF92EF92FF920F931F93EC
:101B8000CF93DF937C01CB018A012091B80D2223F2
:101B900089F0EB016B01C40ED51ECC15DD0569F093
:101BA0006991D701ED91FC910190F081E02DC70181
:101BB0001995F3CF642F0E94350CC801DF91CF91A6
:101BC0001F910F91FF90EF90DF90CF900895CF93EA
:101BD000DF931F92CDB7DEB769832091B80D222322
:101BE000F9F02091DB0D203258F021E030E0FC01CB
:101BF0003383228390E080E00F90DF91CF910895AE
:101C00008091B90DE82FF0E0E654F24F998190836E
:101C10008F5F8093B90D8093DB0D81E090E0ECCF76
:101C200061E0CE0101960E94350CF7CF682F8CED54
:101C30009FE00C94E70D90E080E008950895FC018A
:101C4000E61BF70B681779071CF0FB01E81BF90B83
:101C50009C01241B350B481759071CF09A01281BBF
:101C6000390BDA01A61BB70B641775071CF0DB01F3
:101C7000A41BB50B2E173F075CF0AE17BF072CF067
:101C8000860F971F959587950895E217F3072CF017
:101C9000840F951FA217B307ACF7640F751FCB0114
:101CA000F1CF0CB405FC0DC09EBD00000DB407FEC5
:101CB000FDCF9EB58EBD00000DB407FEFDCF8EB5E5
:101CC00008958EBD00000DB407FEFDCF8EB59EBDFC
:101CD00000000DB407FEFDCF9EB5089560E08BE1D6
:101CE0000E94500B60E08DE10E94500B80E991E072
:101CF0009093310D8093300D10922E0D10922D0D7A
:101D000008954F925F926F927F928F929F92AF92BF
:101D1000BF92CF92DF92EF92FF920F931F93CF93D8
:101D2000DF9300D000D0CDB7DEB79E838D832A012C
:101D30003B01FC01008511856801F12CE12C8285B5
:101D4000882309F455C080809180A280B380A701C8
:101D50009801281939094A095B09648175818681CE
:101D600097810E94994CA70198010E943E4C2983BB
:101D70003A834B835C83A5019401C301B2010E94A5
:101D8000994C89809A80AB80BC80860E971EA81ED5
:101D9000B91EED81FE8184829582A682B782169556
:101DA0000795ED81FE816481758186819781600F41
:101DB000711F811D911DA70196010E943E4CCA0111
:101DC000B90126960FB6F894DEBF0FBECDBFDF91E6
:101DD000CF911F910F91FF90EF90DF90CF90BF9028
:101DE000AF909F908F907F906F905F904F900895ED
:101DF000AB019201C701B8010E94994CED81FE81AF
:101E0000648375838683978381E08287C8CF8F92AE
:101E10009F92AF92BF92CF92DF92EF92FF92811189
:101E20002BC08091690D81110BC090E080E0FF9084
:101E3000EF90DF90CF90BF90AF909F908F900895DC
:101E40008FE00E94BA0B039784F360914D0D70915F
:101E50004E0D90E080E0625E7F4F8F4F9F4F9B0161
:101E6000AC010E94994C29E233E040E050E00E942E
:101E70003E4C6901C601DBCF8130E1F48091690DF0
:101E8000882399F28FE00E94BA0B039774F2609155
:101E9000470D7091480D90E080E064577F4F8F4F61
:101EA0009F4F9B01AC010E94994C2CED39E240E020
:101EB00050E0DDCF823011F58CE490E10E940A0CF5
:101EC0006C32714081059105A8F28FE00E94BA0B37
:101ED00003970CF4AACF6091430D7091440D90E0EC
:101EE00080E0625E7F4F8F4F9F4F9B01AC010E944D
:101EF000994C2CE63AE240E050E0B9CF8091690D70
:101F0000882309F492CF80914D0D90914E0D843627
:101F1000910508F48ACF8091470D9091480D05975F
:101F200008F461C020914D0D30914E0DE090470DA9
:101F3000F090480DE0914D0DF0914E0D4091470D00
:101F40005091480DA4E6B0E00E948A4C4B015C0120
:101F50009701AEE1B0E00E948A4C860E971EA81E43
:101F6000B91E80EF880E8AE0981EA11CB11C9F014B
:101F7000AAE0B0E00E948A4C6B017C01DA012DEFEF
:101F80003FEF4FEF5FEF0E945D4CA7019601260FD8
:101F9000371F481F591F2851314041095109C501B8
:101FA000B4010E943E4CBA01A90184EF9FE00E9457
:101FB000810E6B017C0124E6C216D104E104F10418
:101FC0002CF093E6C92ED12CE12CF12C8AE0C81616
:101FD000D104E104F1040CF04DCF8AE0C82ED12CDD
:101FE000E12CF12C47CF8AE090E021CF8091640A68
:101FF000811164C01092500D10924F0D2AE936EDF8
:102000003093E40C2093E30C88E292E49093D40A9A
:102010008093D30A3093D60A2093D50A80EE97E0B6
:1020200090931F0D80931E0D3093560A2093550AEE
:1020300060EE7FEF7093D80A6093D70A20E038EF04
:102040003093540A2093530A10925A0A1092590A54
:10205000EFEFFFEFF093580AE093570A1092290D23
:102060001092280D9093270D8093260D3093220D0A
:102070002093210D9093600A80935F0A4FE150E016
:1020800050935C0A40935B0AF093420AE093410A42
:102090009093590D8093580D7093550D6093540D86
:1020A0003093600D20935F0D88E49AE490935E0D69
:1020B00080935D0D50935C0D40935B0D8091640A9D
:1020C000813009F066C01092500D10924F0D80E0E3
:1020D00098EF9093E40C8093E30C40E058E5509324
:1020E000D40A4093D30A9093D60A8093D50A20E865
:1020F00032E030931F0D20931E0D5093560A4093EB
:10210000550A41E256EC5093D80A4093D70A1092F0
:10211000540A1092530A10925A0A1092590A67E010
:102120007CEF7093580A6093570A1092290D109211
:10213000280D60EE77E07093270D6093260D909345
:10214000220D8093210D3093600A20935F0A6CE486
:1021500070E070935C0A60935B0A9093420A8093EC
:10216000410A3093590D2093580D5093550D4093CB
:10217000540D9093600D80935F0D88E49AE49093E2
:102180005E0D80935D0D80EE9FEF90935C0D8093CC
:102190005B0D8091640A823009F064C01092500D8A
:1021A00010924F0D2BE43BE63093E40C2093E30CAC
:1021B00088E49AE49093D40A8093D30A3093D60AA1
:1021C0002093D50A40E852E050931F0D40931E0D16
:1021D0009093560A8093550A61E276EC7093D80A80
:1021E0006093D70A1092540A1092530A10925A0A16
:1021F0001092590A9093580A8093570A1092290D09
:102200001092280D20EE37E03093270D2093260DF5
:1022100020E038EF3093220D2093210D5093600A77
:1022200040935F0AECE4F0E0F0935C0AE0935B0A11
:102230003093420A2093410A5093590D4093580D10
:102240007093550D6093540D3093600D20935F0D86
:1022500090935E0D80935D0D80EE9FEF90935C0DEB
:1022600080935B0D0895813041F028F08230D1F0E9
:10227000833049F108950C946E0E61E08BE10E9469
:10228000500B60E08DE10E94500B84EF91E0909341
:10229000310D8093300D8CE791E090932E0D80935B
:1022A0002D0D089560E08BE10E94500B61E08DE1FF
:1022B0000E94500B86E292E09093310D8093300D96
:1022C00084EA91E0EACF61E08BE10E94500B61E08B
:1022D0008DE10E94500B84EC99E09093310D809336
:1022E000300D80EE91E0D9CFF8948BE00E94BA0BCC
:1022F000789488389105FCF08F3B9105F4F0863F87
:102300009105ECF08C3221E09207DCF0833621E07D
:102310009207CCF08A3921E09207BCF0813D21E0A0
:102320009207ACF0883022E092079CF08E33924006
:1023300094F081E008958AE0089589E0089588E0A6
:10234000089587E0089586E0089585E0089584E083
:10235000089583E0089582E00895F8948BE00E9448
:10236000BA0B9C017894863791054CF183589109FA
:102370008534910530F1825591098534910518F124
:10238000835591098534910500F18555910985346E
:102390009105E8F08255910985349105D0F0835577
:1023A000910985349105B8F08555910985349105D9
:1023B000A0F081E02C3033408CF080E008958AE07A
:1023C000089589E0089587E0089586E0089585E0FE
:1023D000089584E0089583E0089582E00895F894D4
:1023E0008BE00E94BA0B78948236910564F19C01CF
:1023F000255631092B33310540F1205431092C3356
:10240000310528F1215431092733310510F12C53BE
:10241000310927333105F8F02C5331092C333105BC
:10242000E0F0215431092C333105C8F02154310931
:102430002C313105B0F02152310981E02C353105C4
:1024400088F080E008958AE0089589E0089587E0A3
:10245000089586E0089585E0089584E0089583E076
:10246000089582E00895A895089508958EBD00000E
:102470000DB407FEFDCF8EB50895CF93C82F662308
:1024800099F0409AF8948091040E81110FC04298FF
:102490008CE591E00E94DF088C2F0E943612429A50
:1024A000289A7894CF9108954098ECCF2898F0CF4F
:1024B000CF93C62F60E00E943D1261E08C2FCF9138
:1024C0000C943D121F93CF93DF93182FEB01692FCC
:1024D00082E00E945812612F83E00E9458126D2FF3
:1024E00086E00E9458126C2F87E0DF91CF911F91F8
:1024F0000C945812CF93DF93813421E0920720F59A
:10250000613F710508F5EA019B01BC0180EF90E095
:10251000821B930B0E94621260E082E20E943D12D5
:10252000409AF8948091040E811111C042988CE574
:1025300091E00E94DF088D2F0E9436128C2F0E949E
:102540003612429A289A7894DF91CF91089528986C
:10255000EECF8F929F92AF92BF92CF92DF92EF9287
:10256000FF920F931F93CF93DF935C01EB017901EF
:10257000E60EF71E6A01C80ED91ECE15DF0579F0EA
:1025800045018C149D0449F0A801BE01C4010E94BC
:102590007A128FEF881A980AF4CF2196EECFDF9146
:1025A000CF911F910F91FF90EF90DF90CF90BF9050
:1025B000AF909F908F9008952F923F924F925F928D
:1025C0006F927F928F929F92AF92BF92CF92DF9243
:1025D000EF92FF920F931F93CF93DF9300D000D021
:1025E00000D01F92CDB7DEB76B01342E252E7901B6
:1025F000280126E02E9DA0012F9D500D11245C8303
:102600004B839A838983E981FA818191FA83E983F3
:10261000882309F45EC090EE980F903608F08FE39F
:102620008052990B23E0880F991F2A95E1F7460104
:10263000B12CA12C9C012854324F3E832D83ED8177
:10264000FE81EA0DFB1DE49139862A86712C612CEE
:102650004E2F50E058874F838F819885062C02C0FB
:10266000959587950A94E2F780FF11C050E485168E
:1026700051E0950660F489859A85803F910538F48C
:1026800082019701A701BC01C4010E94A9129FEF1A
:10269000691A790AE985FA85EE0DFF1DFA87E9873F
:1026A000F8E06F167104C1F62FEFA21AB20A8E0C71
:1026B0009F1C38E0A316B10409F0C1CF4FE3C41644
:1026C00041E0D40608F09FCF8B819C81C80ED91EB3
:1026D0009ACF2A960FB6F894DEBF0FBECDBFDF911A
:1026E000CF911F910F91FF90EF90DF90CF90BF900F
:1026F000AF909F908F907F906F905F904F903F90A2
:102700002F900895FF920F931F93CF93DF93F82E8E
:10271000EB018091640D811137C081E08093040E3C
:10272000E0915602F0E0E75DFD4F8081813021F4B9
:10273000C0915F0AD091600AE0915602F0E0E75D37
:10274000FD4F8081823021F4C0915B0AD0915C0AF8
:1027500000914F0D1091500D25E130E040E550E023
:1027600065E170E084EE90E00E94A912F11012C0C1
:1027700008E41AE423E030E045E150E064EE70E064
:1027800083EB94E00E94DC12DF91CF911F910F91B7
:10279000FF90089581E0F8120AC08E0123E030E036
:1027A00045E150E064EE70E087EB94E0EBCF82E02F
:1027B000F8120AC08E0123E030E045E150E064EEFB
:1027C00070E08BEB94E0DECF83E0F8120AC08E015C
:1027D00023E030E045E150E064EE70E08FEB94E000
:1027E000D1CF84E0F8120AC08E0123E030E045E149
:1027F00050E064EE70E083EC94E0C4CF85E0F81222
:102800000AC08E0123E030E045E150E064EE70E064
:1028100087EC94E0B7CF86E0F8120AC08E0123E07F
:1028200030E045E150E064EE70E08BEC94E0AACF3C
:1028300087E0F8120AC08E0123E030E045E150E065
:1028400064EE70E08FEC94E09DCF88E0F8120AC04F
:102850008E0123E030E045E150E064EE70E088ED69
:1028600094E090CF89E0F8120AC08E0123E030E0B6
:1028700045E150E064EE70E083ED94E083CF8AE0C0
:10288000F81282CF8E0123E030E045E150E064EEA3
:1028900070E087ED94E076CFFF920F931F93CF9374
:1028A000DF938091640D81117EC081E08093040EDE
:1028B000F090620DF11005C08091F50C882309F4A9
:1028C0004AC081E08093F50C08E212E420E130E098
:1028D00044E250E06AE070E08EE890E00E94A912C5
:1028E000C0914F0DD091500DFF2059F08E0123E083
:1028F00030E045E150E064E270E08CED94E00E944D
:10290000DC128E0123E030E045E150E064E270E04B
:102910008FED94E00E94DC1268EC70E080E090E0C3
:102920000E94D70B00915F0D1091600D23E030E005
:1029300045E150E064E270E08FED94E00E94DC122B
:1029400068EC70E080E090E0DF91CF911F910F91F3
:10295000FF900C94D70B8091650D81112AC00091D6
:102960004F0D1091500D25E130E04AE550E065E152
:1029700070E08AE190E00E94A91208E212E423E0EC
:1029800030E045E150E064E270E084EE94E00E94C3
:10299000DC1220E130E044E250E06AE070E08EE8D2
:1029A00090E00E94A912DF91CF911F910F91FF90AB
:1029B00008958091650D8130B1F700914F0D109110
:1029C000500D25E130E04AE550E065E170E08AE134
:1029D00090E00E94A91200EE1FEF23E030E045E1F5
:1029E00050E064E270E08CED94E00E94DC12009113
:1029F000580D1091590DCDCF0F931F932091640D59
:102A000021110EC08C0181E08093040E20E130E0A2
:102A100044E250E06AE070E08EE890E00E94A91283
:102A20001F910F910895CF92DF92EF92FF920F9333
:102A30001F93CF93DF938034E1E09E07C8F4603F9B
:102A40007105B0F479016C01EB018B01040F151FC6
:102A5000C801003F110510F08FEE90E0C817D907AC
:102A600038F4A701BE01C6010E947A122196F0CF68
:102A7000DF91CF911F910F91FF90EF90DF90CF905A
:102A80000895CF92DF92EF92FF920F931F93CF930F
:102A9000DF938034E1E09E07D8F4603F7105C0F415
:102AA00079018B01EC016C01C40ED51EC60120E436
:102AB000C21621E0D20610F08FE391E0C817D907C3
:102AC00038F4A701B801CE010E947A122196EECF08
:102AD000DF91CF911F910F91FF90EF90DF90CF90FA
:102AE00008952F923F924F925F926F927F928F92B2
:102AF0009F92AF92BF92CF92DF92EF92FF920F938D
:102B00001F93CF93DF9300D01F92CDB7DEB76C0138
:102B10007C836B837A0129010091D30A1091D40A36
:102B20009801A2010E941315520182E0A81AB1086F
:102B30002B803C809FEF291A390A46018FEF881AB3
:102B4000980A9801A501B101C4010E941315609073
:102B5000D50A7090D60AC6018E0D9F1D9A8389836F
:102B60009301A2016B817C810E9413159301A50141
:102B7000B10189819A8101970E9413159801A701DB
:102B80006B817C81C6010E944115570192E0A91A10
:102B9000B1089801A501B101C4010E9441150B8142
:102BA0001C81040D151D9301A701B801C6010E94E7
:102BB0004115B801615071099301A501C4010E943A
:102BC000411500914F0D1091500D92012350310984
:102BD000A701435051096B817C816E5F7F4FC60115
:102BE00002960E94A9120F900F900F900F90DF9104
:102BF000CF911F910F91FF90EF90DF90CF90BF90FA
:102C0000AF909F908F907F906F905F904F903F908C
:102C10002F9008952F923F924F925F926F927F92E2
:102C20008F929F92AF92BF92CF92DF92EF92FF92DC
:102C30000F931F93CF93DF9300D01F92CDB7DEB7D2
:102C40006C017C836B837A0129010091D50A109174
:102C5000D60A9801A2010E941315520182E0A81A17
:102C6000B1082B803C809FEF291A390A46018FEF6B
:102C7000881A980A9801A501B101C4010E94131590
:102C80006090D30A7090D40AC6018E0D9F1D9A835E
:102C900089839301A2016B817C810E9413159301AA
:102CA000A501B10189819A8101970E9413159801AC
:102CB000A7016B817C81C6010E944115570192E0FA
:102CC000A91AB1089801A501B101C4010E944115DA
:102CD0000B811C81040D151D9301A701B801C601CC
:102CE0000E944115B801615071099301A501C40109
:102CF0000E94411500914F0D1091500D92012450EA
:102D00003109A701445051096B817C816E5F7F4F6F
:102D1000C60102960E94A9120F900F900F900F907B
:102D2000DF91CF911F910F91FF90EF90DF90CF90A7
:102D3000BF90AF909F908F907F906F905F904F90DB
:102D40003F902F900895EF92FF920F931F93CF9390
:102D5000DF9381E08093040E2EE130E04CE350E0FD
:102D60006DEC70E082E890E00E940A16C091E30CDE
:102D7000D091E40C8E0122E030E045ED50E067E8B0
:102D800070E088EE94E00E94DC122CE230E048E231
:102D900050E068E070E08EE090E00E940A1624E0C7
:102DA00030E042E150E068E170E08DEE94E00E9496
:102DB000DC122CE230E048E250E068E070E08AE0AB
:102DC00091E00E940A1624E030E042E150E062E126
:102DD00071E08FEE94E00E94DC122CE230E048ECCF
:102DE00050E068E070E08CE390E00E9471152CE206
:102DF00030E048EC50E064E470E08CE390E00E9446
:102E00007115E090E60C00911E0D10911F0DEE0C57
:102E1000FF08F701E358FB4F22E030E044E150E0C7
:102E200061E470E0808191810E94DC12F701E95E2B
:102E3000FD4F8E0122E030E040E550E061E470E0BB
:102E4000808191810E94DC122EE130E040E550E06B
:102E50006DE770E088E790E00E940A1622E030E01B
:102E600044E850E06CE770E081EF94E00E94DC12EF
:102E70001092E70C22E030E04EEB50E06EEC70E098
:102E800088EF94E00E94DC1222E030E04EEB50E04C
:102E90006EEF70E08BE49AE00E94DC1222E030E0FA
:102EA00045ED50E06EEC70E08DEF94E00E94DC1296
:102EB00022E030E045ED50E064EF70E081E095E025
:102EC0000E94DC12DF91CF911F910F91FF90EF9044
:102ED00008952F923F924F925F926F927F928F92BE
:102EE0009F92AF92BF92CF92DF92EF92FF920F9399
:102EF0001F93CF93DF93CDB7DEB72C970FB6F8941F
:102F0000DEBF0FBECDBF7C016B01422E1E830D8341
:102F1000822F8695282E312C8FE391E09C01221977
:102F200033093C832B8349835A83642C712CE981B8
:102F3000FA818191FA83E983882309F45CC02B81AB
:102F40003C812E153F0508F473018052990BAC01AA
:102F500024E0440F551F2A95E1F76CE0689F90012B
:102F6000699F300D1124DC86CB86470110E000E01C
:102F7000CA018C5A9C4F98878F83F901EC5BF64FFE
:102F8000FA87E9873CE0E985FA85431629F060E194
:102F9000461205C0EF81F885E00FF11F5490AB8415
:102FA000BC8488E0A80EB11C57FE07C04D815E812D
:102FB0006B857C85C4010E947A12550CEB85FC85DB
:102FC0003196FC87EB87CF018C199D09681679062D
:102FD00061F4FFEF8F1A9F0ADC86CB860F5F1F4FCD
:102FE000041580F2E20CF31CA2CF2B853C852A1538
:102FF0003B05D1F6F3CF2C960FB6F894DEBF0FBE8B
:10300000CDBFDF91CF911F910F91FF90EF90DF9097
:10301000CF90BF90AF909F908F907F906F905F9078
:103020004F903F902F9008954F925F926F927F92B2
:103030008F929F92AF92BF92CF92DF92EF92FF92C8
:103040000F931F93CF93DF933C012C0181E0481A2B
:103050005108620186E0CC0CDD1C8A95E1F7C09135
:10306000590AD0915A0A1092040EE090D30AF090B7
:10307000D40A46018AE0880E911C97014EE150E087
:103080006BE070E0C4010E94131556018BE0A80E9E
:10309000B11C97014CE150E06CE070E0C5010E946A
:1030A00013150091D50A1091D60A98014EE150E00F
:1030B0006BE070E0C601C6960E94131598014CE1C2
:1030C00050E06CE070E0C601C5960E9413159701B0
:1030D0004CE250E06BE070E0C4010E9441159701A2
:1030E0004AE250E06CE070E0C5010E944115980191
:1030F0004CE250E069E270E0C4010E944115980181
:103100004AE250E068E270E0C5010E94411500917A
:10311000570A1091580A22E230E04DE251E06AE08D
:1031200070E089E090E00E94A91283E04816510403
:1031300008F0A5C003E110E09E0142E150E069E122
:1031400070E0C8010E941315085C1F4F033681E030
:10315000180791F70FE210E09E014BE050E060E2AB
:1031600070E0C8010E941315085C1F4F073481E00E
:10317000180791F7E090550AF090560A870122E06F
:1031800030E04DE650E081E06816710409F022C19C
:103190006DE470E086E095E00E94DC1222E030E011
:1031A0004DE650E06DE870E08AE095E00E94DC12A8
:1031B00022E030E04DE650E06DEC70E08EE095E00E
:1031C0000E94DC1222E030E04DE650E06DE071E05C
:1031D00082E195E00E94DC1200911E0D10911F0DFE
:1031E00022E030E04DE650E06DE070E086E195E0F1
:1031F0000E94DC128E0120E142E255E069E070E0BD
:1032000080E190E00E9469170091530A1091540ADE
:103210002CE04AE155E06BE070E08EE190E00E9426
:1032200069178E0120E140E255E069E070E080E43A
:1032300090E00E94691720E144E255E069E070E007
:1032400088E790E00E94691720E148E255E069E0D4
:1032500070E080EB90E00E94691720E14CE255E0BD
:1032600069E070E088EE90E00E94691720E140E399
:1032700055E069E070E08EE191E00E946917C301BA
:103280000497029708F095C0E090550AF090560A0E
:10329000870122E030E04DE650E06DE070E084E030
:1032A0006816710409F081C186E195E00E94DC1284
:1032B00022E030E04DE650E06DE470E086E095E01D
:1032C0000E94DC1222E030E04DE650E06DE870E054
:1032D0008AE095E00E94DC1222E030E04DE650E00A
:1032E0006DE071E082E195E00E94DC1200911E0D1C
:1032F00010911F0D22E030E04DE650E06DEC70E0E3
:103300008EE095E00E94DC1203E110E09E014FE0A8
:1033100050E06BE170E0C8010E941315045E1F4F7E
:10332000073481E0180791F78E0120E142E255E071
:1033300069E070E080E190E00E9469170091530A13
:103340001091540A2CE040E455E06BE070E08EE10F
:1033500090E00E9469178E0120E146E455E069E0A3
:1033600070E083E490E00E94691720E149E455E0B1
:1033700069E070E08BE790E00E94691720E14CE47F
:1033800055E069E070E083EB90E00E94691720E16E
:103390004FE455E069E070E08BEE90E00E94691721
:1033A00020E142E555E069E070E083E291E00E94AF
:1033B0006917DF91CF911F910F91FF90EF90DF90F0
:1033C000CF90BF90AF909F908F907F906F905F90C5
:1033D0004F9008956DE070E082E06816710409F086
:1033E00074C086E195E00E94DC1222E030E04DE6F8
:1033F00050E06DE870E08AE095E00E94DC1222E087
:1034000030E04DE650E06DEC70E08EE095E00E941B
:10341000DC1222E030E04DE650E06DE071E082E148
:1034200095E00E94DC1200911E0D10911F0D22E00C
:1034300030E04DE650E06DE470E086E095E00E94FB
:10344000DC128E0120E142E255E069E070E080E1AB
:1034500090E00E9469170091530A1091540A2CE0E1
:103460004AE155E06BE070E08EE190E00E94691760
:103470008E0120E14FEF56E069E070E083E490E0D8
:103480000E94691720E144E355E069E070E08BE7B2
:1034900090E00E94691720E147E355E069E070E0A1
:1034A00083EB90E00E94691720E14AE355E069E070
:1034B00070E08BEE90E00E94691720E14DE355E04B
:1034C00069E070E083E291E0D8CE86E195E00E9469
:1034D000DC1222E030E04DE650E06DE470E086E082
:1034E00095E00E94DC1222E030E04DE650E06DEC09
:1034F00070E08EE095E00E94DC1222E030E04DE6C4
:1035000050E06DE071E082E195E00E94DC120091F4
:103510001E0D10911F0D22E030E04DE650E06DE8E9
:1035200070E08AE095E00E94DC128E0120E142E228
:1035300055E069E070E080E190E00E946917009139
:10354000530A1091540A2CE04AE155E06BE070E018
:103550008EE190E00E9469178E0120E147E455E07A
:1035600069E070E088E490E00E94691720E14AE495
:1035700055E069E070E080E890E00E94691720E182
:103580004DE455E069E070E088EB90E00E94691737
:1035900020E144E055E069E070E080EF90E00E94B7
:1035A000691720E14FEF56E08BCF86E195E00E944E
:1035B000DC1222E030E04DE650E06DE470E086E0A1
:1035C00095E00E94DC1222E030E04DE650E06DE82C
:1035D00070E08AE095E00E94DC1222E030E04DE6E7
:1035E00050E06DEC70E08EE095E00E94DC120091FE
:1035F0001E0D10911F0D22E030E04DE650E06DE011
:1036000071E082E195E00E94DC1203E110E09E018E
:103610004FE050E06BE170E0C8010E941315025FBB
:103620001F4F093381E0180791F78E0120E142E234
:1036300055E069E070E080E190E00E946917009138
:10364000530A1091540A2CE045E555E06BE070E018
:1036500088E290E00E9469178E0120E14BE555E079
:1036600069E070E086E590E00E94691720E14FEF85
:1036700056E069E070E087E990E00E94691720E178
:103680004AE555E069E070E08DED90E00E94691731
:1036900020E144E355E087CEEF92FF920F931F9312
:1036A000CF93DF931092040E20E430E040E351E02A
:1036B00068E070E087E090E00E9471152EE030E055
:1036C0004DE150E060E570E082E190E00E9471150C
:1036D0002EE030E04DE150E060E570E082E590E002
:1036E0000E9471152EE030E04DE150E060E570E0A1
:1036F00082E990E00E9471152EE030E04DE150E04B
:1037000060E570E082ED90E00E9471152EE030E0FF
:103710004DE150E060E570E082E191E00E947115BA
:103720002EE130E04CE250E064E670E08AE090E0A8
:103730000E940A16C091E30CD091E40C8E0122E0A5
:1037400030E04DE650E06DE070E086E195E00E94EB
:10375000DC122EE130E04CE250E064E670E08AE4F6
:1037600090E00E940A1622E030E04DE650E06DE461
:1037700070E086E095E00E94DC122EE130E04CE241
:1037800050E064E670E08AE890E00E940A1622E0C9
:1037900030E04DE650E06DE870E08AE095E00E9490
:1037A000DC122EE130E04CE250E064E670E08AEC9E
:1037B00090E00E940A1622E030E04DE650E06DEC09
:1037C00070E08EE095E00E94DC122EE130E04CE2E9
:1037D00050E064E670E08AE091E00E940A1622E080
:1037E00030E04DE650E06DE071E082E195E00E944E
:1037F000DC1280912A0D90E00E94141822E030E043
:103800004BE950E06AE070E08DE595E00E94DC1243
:103810002EE130E040E550E062E970E08FE390E0B7
:103820000E947115E0901E0DF0901F0D870122E09F
:1038300030E049E950E066E770E088EC97E00E94EC
:10384000DC128E0122E030E04BE950E065EA70E0E6
:1038500082E695E00E94DC122EE130E040E550E087
:1038600062E970E086EE90E00E947115870122E027
:1038700030E049E950E068E171E087E695E00E94B8
:10388000DC128E0122E030E04DEC50E06AE070E0A6
:1038900089E695E00E94DC122EE130E040E550E040
:1038A00064EC70E08FE390E00E94711522E030E05C
:1038B0004DEC50E065EA70E08EE695E00E94DC1287
:1038C0002EE130E040E550E064EC70E086EE90E000
:1038D000DF91CF911F910F91FF90EF900C94711594
:1038E000CF92DF92EF92FF92CF93DF93EC0170E0E3
:1038F00060E090E080E00E94621260E082E20E945C
:103900003D12409A8091040E81111CC04298C12C36
:103910008CE2D82EEE24E394F12C8D2F0E943612E7
:103920008C2F0E94361281E0C81AD108E108F108F4
:10393000A1F7429A289ADF91CF91FF90EF90DF9004
:10394000CF9008952898E3CFCF93DF93EC01EAE07E
:10395000F1E0808180688083EBE0F1E08081806825
:103960008083389A409A3A9A429A209A289A6B9A77
:10397000739860E08AEE0E94581260E28BEE0E941B
:1039800058126CE08CEE0E94581264EC8DEE0E948E
:10399000581268E388EE0E94581260E189EE0E9496
:1039A000581261E081EF0E94581260E182EF0E949C
:1039B000581261E080E40E94581260E081E40E94A5
:1039C000581260E082E40E94581260E183E40E9491
:1039D00058126EE084E40E94581264E285E40E946A
:1039E000581264E086E40E94581260E587E40E9461
:1039F000581262E088E40E94581263E189E40E9450
:103A0000581269E18AE40E94581269E18BE40E942D
:103A1000581266E18CE40E9458126BE180E50E9426
:103A2000581261E381E50E9458126FE282E50E941C
:103A300058126FE383E50E9458126FE384E50E94F9
:103A400058126EE385E50E9458126FE286E50E94E7
:103A500058126BE787E50E94581269E088E50E94DA
:103A6000581266E089E50E94581266E08AE50E94D5
:103A700058126CE08BE50E9458126DE18CE50E94B3
:103A800058126CEC8DE50E9458126BE18BE10E949C
:103A9000581261E08AE10E9458126FE284E20E94AB
:103AA000581267E585E20E94581268E883E20E9496
:103AB000581264E388E10E94581261E089E10E9493
:103AC000581260E081E00E94581268E88FE10E947D
:103AD000581265E070E080E090E00E94D70B60E84B
:103AE0008FE10E94581265E070E080E090E00E9453
:103AF000D70B60E98FE10E94581265E070E080E02A
:103B000090E00E94D70B60ED8FE10E94581265E0B3
:103B100070E080E090E00E94D70B65E087E10E94B2
:103B2000581260E086E30E94581268E388E20E941F
:103B3000581268E270E080E090E00E94D70B6FE3DB
:103B400088E20E94581268E186E10E94581260E003
:103B500082E00E94581260E083E00E94581260E008
:103B600084E00E9458126FEE85E00E94581260E0D7
:103B700086E00E94581260E087E00E94581261E0DF
:103B800088E00E9458126FE389E00E94581261E0B9
:103B900070E080E090E00E94D70BCE010E94701C84
:103BA000739ADF91CF9108952F923F924F925F9237
:103BB0006F927F928F929F92AF92BF92CF92DF923D
:103BC000EF92FF920F931F93CF93DF9300D01F923A
:103BD000CDB7DEB7FC012081222309F4A0C09C836D
:103BE0008B830E94C8082B013C01EB81FC818185FD
:103BF0009285A385B485A3019201281B390B4A0B3A
:103C00005B0BDA01C9010397A105B10508F487C070
:103C100081E591E00E94DF0860E0EB81FC81818119
:103C20000E94500B81EB0E94361281EC90E00E94C2
:103C3000510E8C0163E0169507956A95E1F70150E6
:103C4000104F81E990E00E94510E73E096958795A0
:103C50007A95E1F7081B190B0039F1E01F070CF406
:103C60004AC081E990E00E94510E81ED90E00E94EF
:103C7000510E5C0123E0B694A7942A95E1F781E9FF
:103C800090E00E94510E6C0133E0D694C7943A95AF
:103C9000E1F781ED90E00E94510E4C0143E09694D3
:103CA00087944A95E1F781E990E00E94510E1C014A
:103CB00053E0369427945A95E1F780ED90E00E9406
:103CC000510E7C0190E080E00E94510E9A8389831E
:103CD00061E0EB81FC8181810E94500B17FF14C0D1
:103CE000EB81FC8110861782EB81FC8182818F3F02
:103CF000B1F0108214C0312C212C912C812CD12CAC
:103D0000C12CB12CA12CD9CF0039F1E01F07F4F45C
:103D1000EB81FC81108617820B3411052CF30F9078
:103D20000F900F900F90DF91CF911F910F91FF9007
:103D3000EF90DF90CF90BF90AF909F908F907F904B
:103D40006F905F904F903F902F900895EB81FC8192
:103D500010870783A70183E0569547958A95E1F779
:103D6000B401C5010E941F0E8C0149815A8193E064
:103D7000569547959A95E1F7B101C6010E941F0E2D
:103D8000EB81FC81418652866386748614830383AB
:103D900096838583C4CFCF93DF93EC01F8940E9480
:103DA000D41D789481E02F813885203931400CF47E
:103DB00080E0DF91CF910895CF93C82FF89460E011
:103DC00089E10E94500B8DE591E00E94DF088C2F65
:103DD0000E94361261E089E10E94500B7894CF91E5
:103DE0000895CF93DF93EC019A01AB01E889F9893B
:103DF00082E08083211581EE38074105510599F154
:103E000060E079E08DE390E00E94684CBA01A9017E
:103E10004150510961097109769567955795479504
:103E2000CA01EC85FD859083EE85FF858083188E21
:103E3000EC89FD8986E08083EA89FB898081806145
:103E40008083EA89FB89808188608083EA89FB8995
:103E5000808180688083EA89FB8980818F7D80836F
:103E6000DF91CF910895E889F989108280E190E08F
:103E7000D8CFCF93C82F8FE39FE00E94790AC2303A
:103E800089F130F4CC23A1F0C13009F1CF9108952C
:103E9000C430F1F190F1C530C9F740E052EC61E077
:103EA00070E08FE39FE00E94F11E89EC95E00AC06C
:103EB00040EC52E160E070E08FE39FE00E94F11E71
:103EC00084E795E09093240280932302DFCF40E8BB
:103ED00055E260E070E08FE39FE00E94F11E85E80C
:103EE00095E0F0CF40E05BE460E070E08FE39FE0BE
:103EF0000E94F11E86E995E0E5CF40E056E960E0DA
:103F000070E08FE39FE00E94F11E87EA95E0DACF30
:103F100040E051EE60E070E08FE39FE00E94F11E10
:103F200088EB95E0CFCFCF93C82F82EA9EE00E9426
:103F3000790AC23089F130F4CC23A1F0C13009F103
:103F4000CF910895C430F1F190F1C530C9F740E048
:103F500052EC61E070E082EA9EE00E94F11E89EC82
:103F600095E00AC040EC52E160E070E082EA9EE039
:103F70000E94F11E84E795E0909318028093170247
:103F8000DFCF40E855E260E070E082EA9EE00E9408
:103F9000F11E85E895E0F0CF40E05BE460E070E082
:103FA00082EA9EE00E94F11E86E995E0E5CF40E0BE
:103FB00056E960E070E082EA9EE00E94F11E87EA26
:103FC00095E0DACF40E051EE60E070E082EA9EE0FA
:103FD0000E94F11E88EB95E0CFCFFB0101900020FD
:103FE000E9F73197AF01461B570B0C94EC088F9201
:103FF0009F92AF92BF92EF92FF920F931F93CF9336
:10400000DF93CDB7DEB7A1970FB6F894DEBF0FBE32
:10401000CDBF7C01FA01CB0119A2223008F42AE0BD
:104020008E010F5D1F4F822E912CB12CA12CBF0150
:10403000A50194010E94684CF901CA016A300CF58F
:10404000605DD8016E938D01232B242B252B79F7EE
:1040500090E080E0109721F0BD01C7010E94ED1FA4
:10406000A1960FB6F894DEBF0FBECDBFDF91CF9102
:104070001F910F91FF90EF90BF90AF909F908F9006
:104080000895695CDECF0F931F93CF93DF93EC010C
:104090000E94ED1F8C016AED75E0CE010E94ED1FBC
:1040A000800F911FDF91CF911F910F910895813063
:1040B00031F46DED75E08FE39FE00C944320823086
:1040C00029F46DED75E082EA9EE0F7CF08950F9335
:1040D0001F938091640D811121C081E08093040EB3
:1040E00000914F0D1091500D25E130E046E350E076
:1040F0006EE870E084EF90E00E94A9128091F40CC9
:1041000081110FC008E212E423E030E04EE850E0F5
:1041100064EF70E08FED95E00E94DC121F910F912B
:104120000895E0915602F0E0E851F34F808181114B
:1041300014C00091580D1091590D23E030E04EE865
:1041400050E064EF70E083EE95E00E94DC1267EED1
:1041500075E085E09EE00E944320E0915602F0E089
:10416000E851F34F80818130C9F60091540D1091D0
:10417000550D23E030E04EE850E064EF70E08CED48
:1041800094E00E94DC126BEE75E085E09EE01F91EA
:104190000F910C9443200F931F938091640D811114
:1041A00076C081E08093040E00914F0D1091500D68
:1041B00025E130E040E150E06EE870E08BE290E015
:1041C0000E94A912E0915602F0E0E75DFD4F808168
:1041D0008130E1F400915F0A1091600A10935E0A49
:1041E00000935D0A23E030E04EE850E069E270E0C1
:1041F0008BED96E00E94DC126FEE75E085E09EE0AC
:104200000E94432060E081E20E94500BE091560240
:10421000F0E0E75DFD4F80818230E1F400915B0AC0
:1042200010915C0A10935E0A00935D0A23E030E06F
:104230004EE850E069E270E087E495E00E94DC120D
:1042400063EF75E085E09EE00E94432061E081E23B
:104250000E94500B8091560260915D0A70915E0A37
:104260000E9482138091F40C882389F081E080936E
:10427000040E00914F0D1091500D25E130E04AE4FD
:1042800050E06EE870E089E790E00E94A9121F916B
:104290000F9108950F931F93CF93DF9381E0809345
:1042A000040E22E330E046E750E061E470E085E090
:1042B00090E00E940A1622E330E04AE350E061E415
:1042C00070E085EC90E00E940A1622E330E04AE3B9
:1042D00050E061E470E081E091E00E940A1622E380
:1042E00030E048E550E069EB70E085E090E00E9446
:1042F0000A1622E330E048E550E069EB70E083EE17
:1043000090E00E940A168091F40C2EE130E04CE31C
:1043100050E08111C0C067E870E082E890E00E9440
:104320000A1622E330E046E750E068E070E085E0FE
:1043300090E00E94711522E330E046E750E068E02B
:1043400070E085EC90E00E94711522E330E048E5D2
:1043500050E060E870E085E090E00E94711522E393
:1043600030E048E550E060E870E083EE90E00E94C5
:10437000711524E130E048E250E068E070E08CE83C
:1043800090E00E9471158091650D882309F49EC00C
:104390008091580D9091590D0E94FC148091640DEC
:1043A000811162C0C091E30CD091E40C81E0809354
:1043B000040E8091650D813091F48091620D811120
:1043C0000EC000911E0D10911F0D23E030E045E15D
:1043D00050E064E270E08CED94E00E94DC128E010B
:1043E00023E030E04FE450E06AE170E087EF95E0D1
:1043F0000E94DC1223E030E04FE450E06BED70E00F
:104400008DEE94E00E94DC1223E030E04FE450E0B7
:1044100067E171E08FEE94E00E94DC1223E030E06F
:1044200047EC50E065E170E08CEF95E00E94DC1213
:104430008091F40C81114FC022E030E04FE850E051
:1044400067E870E080E096E00E94DC120091E30CE7
:104450001091E40C23E030E047EC50E064EF70E0B2
:1044600083E198E00E94DC120E944C148091560275
:10447000882309F44DC08091560260911E0D709101
:104480001F0D0E9482130E94CB20DF91CF911F91BC
:104490000F910C94672065E570E082E890E00E943F
:1044A0000A1622E330E048E550E069EB70E084E76B
:1044B00090E00E940A1622E330E048E550E060E810
:1044C00070E084E790E00E9471152BCF80915D0D24
:1044D00090915E0D61CF22E030E04DE550E067E85D
:1044E00070E080E096E00E94DC1200911E0D1091B9
:1044F0001F0D23E030E047EC50E06AE770E085E014
:1045000096E00E94DC1200911E0D10911F0DA2CFAB
:104510008091560260E078EFB4CF82E390E0A0E0B3
:10452000B0E08093090E90930A0EA0930B0EB09307
:104530000C0E63E47AE085E09EE00E9443206CE18B
:1045400070E083E10E945509FC01E452F24F1082B1
:104550000895813039F48FE39FE00C94ED1F82EAD7
:104560009EE0FBCF8230D9F30895CF92DF92EF9295
:10457000FF920F931F93CF93DF93D82F0E94A3082E
:104580006B017C018091B20D811165C0CD2F81E05E
:104590008093B20D8093B10D9FEF9093B00D109268
:1045A000AF0D9D0F9093AE0D80938D0D80918D0D6D
:1045B0008E6D80938D0D80918C0D813009F07FC0C0
:1045C00010928C0D0E94A3086B017C0180918D0DCF
:1045D0008093BB008091B40D9091B50DA091B60D64
:1045E000B091B70D892B8A2B8B2BA1F00E94A308C9
:1045F0000091B40D1091B50D2091B60D3091B70D0D
:104600006C197D098E099F090617170728073907B6
:1046100008F442C08091BC0083FDD8CF85EC809324
:10462000BC000E94A3086B017C018091B20D813017
:1046300009F447C08091AF0D8D1710F4C091AF0DF4
:10464000AEE8BDE0ECE6FDE080E08C1751F19D9115
:1046500091938F5FFACF8091B40D9091B50DA09199
:10466000B60DB091B70D892B8A2B8B2B09F48ACF0D
:104670000E94A3080091B40D1091B50D2091B60DC4
:104680003091B70D6C197D098E099F090617170720
:104690002807390708F076CF8091B30D0E947A0C75
:1046A000C0E010926B0DC0936A0D8C2FDF91CF91FB
:1046B0001F910F91FF90EF90DF90CF90089585EEBE
:1046C000AECF8091B40D9091B50DA091B60DB09183
:1046D000B70D892B8A2B8B2B09F4A7CF0E94A30837
:1046E0000091B40D1091B50D2091B60D3091B70D1C
:1046F0006C197D098E099F090617170728073907C6
:1047000008F093CFC9CF8FE60E94E20883E090E0E3
:104710000E94160E80E00E949B0C81E090E00E94B7
:10472000B52261E070E080E090E00E94D70B8CED54
:104730009FE00E94A00D992708958FE60E94E2084D
:1047400083E090E00E94160E82E090E00E94160E38
:104750000E948B0D82E090E00E94B52261E070E043
:1047600080E090E00E94D70B60E084E00E94500B54
:104770008091E20C0E94DC1E60E08FE10E94500BF1
:1047800081E08093620D1092690D0E944C1410928A
:10479000040E08958FE60E94E20884E090E00E94F3
:1047A000160E80E00E949B0C82E090E00E94B522F1
:1047B00061E070E080E090E00E94D70B8CED9FE01C
:1047C0000E94A00D6AE070E080E090E00E94D70BAC
:1047D0008FE60E94E20881E090E00E94160E88EACF
:1047E00090E00E94160E0E948B0D61E070E080E068
:1047F00090E00E94D70B82E090E00E94B52261E039
:1048000070E080E090E00C94D70BCF93DF938FE6BD
:104810000E94E20884E190E00E94160E80E00E946F
:104820009B0C82E090E00E94B52261E070E080E0A5
:1048300090E00E94D70B8CED9FE00E94A00DEC0150
:104840008CED9FE00E94A00D94E0CC0FDD1F9A95A7
:10485000E1F7C07FDF7082958F708C0F9D2F911DC7
:10486000DF91CF910895CF93DF938FE60E94E20806
:104870008EE190E00E94160E80E00E949B0C82E088
:1048800090E00E94B52261E070E080E090E00E943C
:10489000D70B8CED9FE00E94A00DEC018CED9FE00A
:1048A0000E94A00D94E0CC0FDD1F9A95E1F7C07F28
:1048B000DF7082958F708C0F9D2F911DDF91CF91AE
:1048C0000895AB01813089F4052E000C660B770B3F
:1048D0002AE08FE39FE00C94F71F052E000C660B77
:1048E000770B2AE082EA9EE0F6CF8230B1F308959A
:1048F0000F931F9360E084E00E94500B1092690DAB
:1049000010924E0D10924D0D1092480D1092470DC1
:104910001092440D1092430D1091E20C60E089E179
:104920000E94500B8DE591E00E94DF08812F0E94CC
:10493000361261E089E10E94500B60E08FE10E9435
:10494000500B8091580D9091590D0E94FC140E94BB
:10495000CA2360E087E10E94500B61E070E080E0D4
:1049600090E00E94D70B61E087E10E94500B10920B
:10497000040E0091560D1091570D22E030E04BECE3
:1049800050E066E470E081E592E00E94DC1261E5AF
:1049900072E08CE492E00E94F14C1092510D1F9154
:1049A0000F91089585ED8093BC008091B40D909196
:1049B000B50DA091B60DB091B70D0796A11DB11D13
:1049C00023E0B695A795979587952A95D1F72091DD
:1049D000BC0024FD03C01092B20D08954091B40DA7
:1049E0005091B50D6091B60D7091B70D452B462BCA
:1049F000472B69F30097A105B10541F02AE22A95FA
:104A0000F1F700C00197A109B109E1CF8091B30D81
:104A10000C947A0C0C94304C0F931F93CF93DF932C
:104A200081E08093040EC0914F0DD091500D8E0106
:104A300025E130E04AE450E06EE870E089E790E07C
:104A40000E94A91225E130E04AE450E067EC70E0F2
:104A500089E790E00E94A91200911E0D10911F0D90
:104A600023E030E047EC50E06AE770E085E096E054
:104A70000E94DC121092630D61E08DE20E94500BE7
:104A80006AE070E080E090E00E94D70B1092DC0DAD
:104A900082E390E0A0E0B0E08093090E90930A0ECC
:104AA000A0930B0EB0930C0E6AE076E085E09EE0DA
:104AB0000E94432065E070E083E10E945509E09187
:104AC000DC0DE093630AE154E43108F035C00E2EAA
:104AD000000CFF0B8827E059FA4D8F4F0C94D14CF6
:104AE000D5259C259C259C25AE2584259C25BB256C
:104AF0009C259C259C25C8259C259C259C259C2582
:104B00009C259C25E225E22500915F0D1091600D0A
:104B100022E030E04EE850E06AE770E08DE096E099
:104B20000E94DC12E0915602F0E0E851F34F10824F
:104B30001092F30C0E946720E09156028091560279
:104B4000F0E0E851F34F90E0608147960E940A251B
:104B5000DF91CF911F910F910C94782400915F0DFC
:104B60001091600D22E030E04EE850E06AE770E01E
:104B700084E196E0D5CF0091540D1091550D22E0BF
:104B800030E04EE850E06AE770E08BE196E0C8CF95
:104B90000091540D1091550D22E030E04EE850E0A8
:104BA0006AE770E082E296E0BBCF0091580D109169
:104BB000590D22E030E04EE850E06AE770E089E20B
:104BC00096E0AECF0091580D1091590D22E030E0E3
:104BD0004EE850E060E870E080E396E00E94DC126E
:104BE000E0915602F0E0E851F34F81E0808380933A
:104BF000F30C0E94672082E390E0A0E0B0E0809395
:104C0000090E90930A0EA0930B0EB0930C0E66E360
:104C100076E085E09EE00E94432068E070E083E15A
:104C20000E9455098091DC0D8053E091DE0DE05328
:104C300094E6899FE00D11248091DD0D80539AE068
:104C4000899FE00D1124F0E0EE0FFF1FE95AFD4FA0
:104C5000808191812AE030E0B9010E94A94CCB010A
:104C6000B9010E94BD4C9F938F937F936F9389E30B
:104C700096E09F938F931F9285E08F9381E592E05A
:104C80009F938F930E94214D1092040E0091560D18
:104C90001091570D22E030E04BEC50E066E470E0FC
:104CA00081E592E00E94DC1261E572E08CE492E022
:104CB0000E94F14C8DB79EB70A960FB6F8949EBF2E
:104CC0000FBE8DBF39CFEF92FF920F931F93CF93FB
:104CD000C1E0C093040EE0904F0DF090500D87019D
:104CE00025E130E04AE450E06EE870E089E790E0CA
:104CF0000E94A91225E130E04AE450E067EC70E040
:104D000089E790E00E94A9128091630D81116BC028
:104D10008091F30C811104C0C093F30C0E946720B2
:104D20000091E30C1091E40C23E030E047EC50E0FC
:104D30006AE770E080E496E00E94DC120091540D76
:104D40001091550D22E030E04EE850E06AE770E047
:104D500085E496E00E94DC121092040E00914F0D43
:104D60001091500D2AE130E04CE450E067EC70E027
:104D700082E490E00E94A91264E670E080E090E096
:104D80000E94D70B81E08093630D8091690D882389
:104D9000D9F060E084E00E94500B1092690DC09140
:104DA000E20C60E089E10E94500B8DE591E00E94E9
:104DB000DF088C2F0E94361261E089E10E94500BBF
:104DC00060E08FE10E94500B60E08DE20E94500B8A
:104DD00065E070E080E090E0CF911F910F91FF902F
:104DE000EF900C94D70BCF911F910F91FF90EF9004
:104DF0000C940C25CF93C82F8FEF8C0F823078F452
:104E000061E087E00E94500BC13071F060E086E005
:104E10000E94500B60E086E00E947E0B0DC060E0B7
:104E200087E00E94500BF2CF61E086E00E947E0B8B
:104E300061E086E00E94500B8CEF8C0F833058F4B9
:104E40008CE496E0909318028093170282EA9EE029
:104E5000CF910C94790A8091620A0E94931FC3300B
:104E600069F482E08093620A62E082E190E00E944D
:104E70000A258091620ACF910C94931FC73029F4C0
:104E800083E08093620A63E0F0CFCF910895CF92E0
:104E9000DF92EF92FF920F931F93CF93DF93D82F60
:104EA000C62F81E08093040ECD2ED12C00914F0DA2
:104EB0001091500D7601EE0CFF1CF701E95EFD4FDD
:104EC00022E030E040E550E061E470E080819181D3
:104ED0000E94DC12D93090F5F6018827ED58F84D84
:104EE0008F4F0C94D14C7C27C02720287F28D727B0
:104EF0009E27FF279E2750288091F80C8430F1F0E0
:104F00008091620AC130D1F58F5F8093620A8091EF
:104F1000620A863011F41092620A8091620A8F3F11
:104F200019F485E08093620A6091620A82E190E060
:104F30000E940A258091620A0E94931F64E670E035
:104F400080E090E00E94D70B00911E0D10911F0D84
:104F5000F701E95EFD4F22E030E040E550E061E41A
:104F600070E0808191810E94DC12DF91CF911F91CE
:104F70000F91FF90EF90DF90CF9008958150C5CFB3
:104F8000C093640A6091640A82E090E00E940A255E
:104F90002091640A8091190290911A026DE576E0E1
:104FA000211102C06EE676E00E94F14CC7CFC0939B
:104FB00036026C2F80E190E00E940A258091360233
:104FC0008823D9F083E41F928F938FE796E09F9315
:104FD0008F931F9281E18F93809120028F93809114
:104FE0001F028F930E94214D8DB79EB708960FB672
:104FF000F8949EBF0FBE8DBFA1CF86E4E4CF809111
:10500000610AC130D9F48F5F8093610A8091610A8F
:10501000863011F41092610A8091610A8F3F19F471
:1050200085E08093610A6091610A85E190E00E94C9
:105030000A258091610A0E94391F80CF8150E4CFF8
:105040008091F80CC13051F58F5F8093F80C8091FE
:10505000F80C883011F41092F80C8091F80C8F3F06
:1050600019F487E08093F80CC091F80CEC2FF0E075
:10507000EE0FFF1FE95AFB4F6081718180911B0287
:1050800090911C020E94F14C6C2F84E190E00E94F0
:105090000A258091F80C0E94FA2650CF8150D5CF76
:1050A0008091E50C811107C081E996E09093280278
:1050B0008093270243CF8091410D8823B1F0109255
:1050C000410D60E086E10E94500B82EA96E09093E9
:1050D0002802809327026091410D83E290E00E94B4
:1050E0000A2585E08093400D29CF81E08093410D12
:1050F00061E086E10E94500B83EB96E0E8CF80915F
:10510000130290911402A0911502B0911602C130C1
:1051100009F067C00196A11DB11D80931302909301
:105120001402A0931502B09316028091130290917D
:105130001402A0911502B09116028E379105A105B7
:10514000B10564F08DE790E0A0E0B0E08093130239
:1051500090931402A0931502B0931602809113024B
:1051600090911402A0911502B09116028B34910512
:10517000A105B10564F48BE490E0A0E0B0E0809379
:10518000130290931402A0931502B093160260913B
:10519000130286E190E00E940A25809116028F9307
:1051A000809115028F93809114028F938091130246
:1051B0008F9384EC96E09F938F931F9281E18F935E
:1051C00080911E028F9380911D028F930E94214D2A
:1051D0008DB79EB70A960FB6F8949EBF0FBE8DBFCF
:1051E000ADCE0197A109B10998CF0F931F93CF932B
:1051F000809156028B3008F0C2C08091690D8111F8
:10520000BEC0E0915602EB30C0F4F0E08827E45FC6
:10521000F64D8F4F0C94D14C17291F2990299329B3
:1052200096299E29A129A929AC29B429BC2965ED73
:1052300076E085E09EE00E944320C0E007C069ED73
:1052400076E085E09EE00E944320C0E28091560215
:10525000882319F18091F40C8823F9F08091640D72
:1052600081111BC0E0915602F0E0E851F34F8081BC
:105270008093F30C81E08093040E00914F0D109108
:10528000500D25E130E04AE450E06EE870E089E737
:1052900090E00E94A9120E946720C093E20C8091C6
:1052A0005602882321F1909156028091D10A9817D5
:1052B000F1F08091E20C0E94DC1E809156028093F6
:1052C000D10A8091560260915D0A70915E0A0E9437
:1052D00082136091560281E090E00E940A250E94AC
:1052E000CB2062E370E080E090E00E94D70B8091D9
:1052F0005602811144C0909156028091D10A9817AC
:10530000F1F1809156028093D10A8091560260910A
:105310005D0A70915E0ACF911F910F910C948213D8
:105320006DED76E08ECF61EE76E08BCF65EE76E0C8
:1053300085E09EE00E944320C8E088CF69EE76E0D9
:10534000F7CF6DEE76E085E09EE00E944320C4E05A
:105350007DCF61EF76E0F7CF65EF76E085E09EE008
:105360000E944320C2E072CF69EF76E085E09EE0C4
:105370000E944320C1E06ACF6DEF76E05ACFCF9113
:105380001F910F9108950C94284C4F925F926F9249
:105390007F928F929F92AF92BF92CF92DF92EF92C5
:1053A000FF920F931F93CF93DF93CDB7DEB7C05516
:1053B000D1090FB6F894DEBF0FBECDBF8C019BE5BF
:1053C000E92E9BE0F92E0130110521F089EDE82E40
:1053D0008AE0F82EF70101900020E9F731976F017C
:1053E000CE18DF085701F50181915F01082E000CEE
:1053F000990B0E94E04CF50131978083C5018E190D
:105400009F09C816D9067CF762E077E0C7010E94C1
:10541000074D009739F465E077E0C7010E94074D1A
:10542000009771F1FC013496A6E6BAE00A96219144
:105430002D938E179F07D9F710926C0A86E69AE093
:105440000E94AB4B4B015C01F6ED8F1AF6E09F0A10
:10545000A108B1082FE5821621E09206A104B1044B
:1054600008F06FC38AE080935602809156029091B3
:10547000650A891709F4F9C3809156028093650A79
:1054800068E077E0C7010E94074D892B09F43CC40E
:105490006BE077E0C7010E94074DFC01892BF9F012
:1054A00094819B3309F0E9C36BE077E0802F0E9481
:1054B000A9226091560270E0802F0E946124802F03
:1054C0000E945720809156028B3010F010925602A5
:1054D000909156028091D10A98130E94F52860E1BC
:1054E00077E0C7010E94074D6C01009729F1FC018C
:1054F00084818B3371F460E177E0802F0E94A922D0
:105500006091650D70E0802F0E946124802F0E94C1
:105510005720F6018481803321F41092650D0E949A
:105520004C14F6018481813339F481E08093650D58
:105530001092620D0E944C1465E177E0C7010E9451
:10554000074D6C01009709F448C0FC0184818B333E
:1055500091F465E177E0802F0E94A922E091560244
:10556000F0E0E75DFD4F608170E0802F0E946124D4
:10557000802F0E945720F60184818133A9F4E091A5
:105580005602F0E0E75DFD4F81E08083E091560236
:1055900080915602F0E0E75DFD4F90E06081039658
:1055A0000E940A250E94CB20F60184818233A9F44F
:1055B000E0915602F0E0E75DFD4F82E08083E091EC
:1055C000560280915602F0E0E75DFD4F90E0608169
:1055D00003960E940A250E94CB206AE177E0C7016A
:1055E0000E94074D6C01009771F1FC0184818B339F
:1055F00099F46AE177E0802F0E94A9228091360217
:1056000067E376E0882311F06FE177E0802F0E9456
:10561000A922802F0E945720F6018481863439F414
:105620001092360260E080E190E00E940A25F601C7
:105630008481833441F481E08093360261E080E12B
:1056400090E00E940A2561E277E0C7010E94074DC1
:105650006C01009709F44CC0FC0184818B3399F4F0
:1056600061E277E0802F0E94A9228091640A64E1C0
:1056700075E0882311F068E177E0802F0E94A9226D
:10568000802F0E945720F60184818434B1F4109257
:10569000640A6091640A82E090E00E940A256EE646
:1056A00076E08091190290911A020E94F14C0E94BA
:1056B000F60F0E944C1B0E944A21F60184818E3411
:1056C000B9F481E08093640A6091640A82E090E01A
:1056D0000E940A256DE576E08091190290911A02E8
:1056E0000E94F14C0E94F60F0E944C1B0E944A211E
:1056F00066E277E0C7010E94074D892B39F166E227
:1057000077E0802F0E94A9220E94332468E270E093
:105710000E94A94C7F936F938BE297E09F938F93A6
:105720001F9284E08F93CE0101966C019F938F931B
:105730000E94214DB601802F0E94A922802F0E9435
:1057400057200FB6F894DEBF0FBECDBF6FE277E0F3
:10575000C7010E94074D892B71F06FE277E0802F1F
:105760000E94A9226091F40C70E0802F0E946124B5
:10577000802F0E94572064E377E0C7010E94074D05
:105780006C01009709F447C0FC0184818B3371F4EC
:1057900064E377E0802F0E94A9226091F30C70E00F
:1057A000802F0E946124802F0E945720F60184815F
:1057B0008133B9F481E08093F30CE0915602F0E07C
:1057C000E851F34F8083E091560280915602F0E059
:1057D000E851F34F90E0608147960E940A250E94AD
:1057E0006720F60184818033B1F41092F30CE091CC
:1057F0005602F0E0E851F34F1082E091560280919A
:105800005602F0E0E851F34F90E0608147960E9425
:105810000A250E94672069E377E0C7010E94074DCF
:10582000892B29F08091F40C81110E9463266EE38C
:1058300077E0C7010E94074D892B89F06EE377E07E
:10584000802F0E94A9226091630A013009F074C27E
:105850008FE39FE00E94570A802F0E94572063E445
:1058600077E0C7010E94074D892B71F063E477E070
:10587000802F0E94A9226091630D70E0802F0E940A
:105880006124802F0E94572068E477E0C7010E94BE
:10589000074D892B09F444C06091320D7091330D8E
:1058A000809136028111F8C129E0269FC001279F0F
:1058B000900D112465E070E00E94A94CCB01805C42
:1058C0009E4F6AE070E00E94BD4CD62EC72E68E461
:1058D00077E0802F0E94A92280913602882309F464
:1058E000DDC183E41F928F93CF92DF928DE497E026
:1058F0009F938F931F9284E08F93CE0101966C014A
:105900009F938F930E94214DB601802F0E94A92260
:10591000802F0E9457200FB6F894DEBF0FBECDBF78
:1059200062E577E0C7010E94074D009791F1FC0105
:10593000D480F6E4DF1609F4B3C122E581E0D21683
:1059400021F084E4D812FBC182E00E94070F9F93EC
:105950008F938D2D0D2C000C990B9F93DF9287E573
:1059600097E09F938F931F928AE08F93FE01319669
:105970006F01FF93EF930E94214DB601802F0E948B
:10598000A922802F0E9457200FB6F894DEBF0FBEC9
:10599000CDBF62E677E0C7010E94074D892B09F46D
:1059A00093C080E00E94070FD82EC92E81E00E948C
:1059B000070FB82EA92E82E00E94070F982E892E7D
:1059C00083E00E94070F782E692E0E94332468E23C
:1059D00070E00E94A94C562E472E0E94052464E1D7
:1059E00070E00E94A94C9B018091320D9091330D83
:1059F0006AE070E00E94A94C8091360281110CC0CF
:105A000049E0469FC001479F900D112465E070E07A
:105A10000E94A94C605E7F4FE09156029091560221
:105A20008091650D4091F30C1F924F934091630D4F
:105A30001F924F934091350D1F924F9340913B0D14
:105A40001F924F934091420D1F924F934091460DEC
:105A50001F924F9340914C0D1F924F934091690DAF
:105A60001F924F93F0E0E75DFD4F40811F924F93EF
:105A70001F929F931F928F937F936F933F932F93C8
:105A80004F925F926F927F928F929F92AF92BF924E
:105A9000CF92DF9287E697E09F938F931F9280E5E6
:105AA0008F93FE0131966F01FF93EF930E94214D7A
:105AB0000FB6F894DEBF0FBECDBFB601802F0E9497
:105AC000A922802F0E94572060EC77E0C7010E9436
:105AD000074D892B41F060EC77E0802F0E94A922CE
